:100000000C947D000C949C000C949C000C949C001F
:100010000C949C000C949C000C949C000C949C00F0
:100020000C949C000C949C000C949C000C949C00E0
:100030000C949C000C949C000C949C000C949C00D0
:100040000C949C000C949C000C949C000C949C00C0
:100050000C949C000C949C000C949C000C949C00B0
:100060000C949C000C949C000C949C000C949C00A0
:100070000C949C000C949C000C949C000C949C0090
:100080000C949C000C949C000C949C000C949C0080
:100090000C949C000C949C000C949C000C949C0070
:1000A0000C949C000C949C000C949C000C949C0060
:1000B0000C949C000C949C000C949C000C949C0050
:1000C0000C949C000C949C000C949C000C949C0040
:1000D0000C949C000C949C000C949C000C949C0030
:1000E0000C949C000C949C000B022F020F02130234
:1000F00017021B021F022302270211241FBECFEF8B
:10010000CDBFDFE7DEBF10E4A0E0B0E4E0EBF5E058
:1001100000E00BBF02C007900D92A230B107D9F7E3
:1001200020E4A2E0B0E401C01D92AE30B207E1F7D6
:100130000E94C8020C94D6020C940000FB0180EDD2
:10014000818384818068848380E28283E0E4F9E0B3
:1001500080E3808311828081816080830895E0E064
:10016000F4E084818F7784830895E0E0F4E0848173
:1001700080688483089560934409809143098823AB
:10018000E4F7809144090895CF93DF93EC010E9436
:10019000AF0060ECCE010E94BB00CE010E94B50012
:1001A000DF91CF9108950F931F93CF93DF93EC01CD
:1001B000062F142F0E94AF0062E0CE010E94BB0008
:1001C000602FCE010E94BB00612FCE010E94BB00B8
:1001D000CE010E94B500DF91CF911F910F9108953C
:1001E0001F93CF93DF93EC01162F0E94AF0063E0C3
:1001F000CE010E94BB00612FCE010E94BB0060E0D7
:10020000CE010E94BB00182FCE010E94B500812FA5
:10021000DF91CF911F910895EF92FF921F93CF939B
:10022000DF93CDB7DEB72D97CDBFDEBF7C01162F94
:10023000FA01808191819C01369527953695279505
:100240003695279529838295880F807E8A831B8225
:100250001C8282818F708D8383818E8384818F83C2
:10026000858188878681898787818A8780858B8732
:1002700081858C8782858D87C7010E94AF001230EF
:1002800029F464E4C7010E94BB000BC0113029F4BB
:1002900062E4C7010E94BB0004C060E4C7010E9481
:1002A000BB0010E01D3060F4E1E0F0E0EC0FFD1F5A
:1002B000E10FF11D6081C7010E94BB001F5FF2CFFB
:1002C000C7010E94B5002D96CDBFDEBFDF91CF9153
:1002D0001F91FF90EF9008951F93CF93DF93EC0150
:1002E000162F0E94AF00123029F464E8CE010E945C
:1002F000BB000BC0113029F462E8CE010E94BB00A4
:1003000004C061E8CE010E94BB00CE010E94B5008E
:10031000DF91CF911F910895EF92FF920F931F935A
:10032000CF938C017B0160E30E94F00083FF0EC03D
:1003300060E4C8010E94F00083FF0AC060E5C801C4
:100340000E94F00083FD10C0C2E003C0C0E001C005
:10035000C1E0A7016C2FC8010E940C016C2FC801DD
:100360000E946C018C2F01C080E0CF911F910F91F2
:10037000FF90EF900895CF93DF93EC01623069F026
:1003800028F4662381F0613031F00EC0633039F01B
:10039000643039F009C048E007C048E205C048E6CB
:1003A00003C048E401C048E86FE0CE010E94D300DA
:1003B00060E0CE010E94BB006EE0CE010E94F00022
:1003C000807E803469F028F4882341F0803281F007
:1003D0000DC0803639F0803839F008C081E009C09E
:1003E00084E007C083E005C080E003C08FEF01C058
:1003F00082E0DF91CF9108950F931F93CF93DF9306
:10040000EC01862F90E08930910528F5FC01EC582D
:10041000FF4F0C94CD0216E804EB43E023C016E82E
:1004200004EB41E01FC016E804EB41E01BC015E8F7
:1004300001EB41E017C016E804EB40E013C015E8FB
:1004400001EB40E00FC012E800E940E00BC010E80B
:1004500000E840E007C01FEF0FEF4FEF03C015E8C3
:1004600002EE47E46AE2CE010E94D300402F69E227
:10047000CE010E94D300412F68E2CE010E94D3003A
:10048000DF91CF911F910F9108951F93CF93DF9329
:10049000EC01162F60E074E00E949E00CE010E94E5
:1004A000AF0060E0CE010E94BB00CE010E94B5000B
:1004B000CE010E94C400612FCE010E94FC0161E0C8
:1004C000CE010E94BB01813009F080E0DF91CF9125
:1004D0001F910895CF93DF9388ED84BFE0E6F0E0AD
:1004E000108284BF91819E7F918384BF8CE180873D
:1004F000C0E4D4E080E489838C8180648C8364E0F0
:100500008DE090E40E944502E2E0F0E48AEA90E0A7
:100510008083918388E0828391E0938392E0948347
:1005200093E0958394E0968395E0978396E0908797
:1005300097E0918782878C818F7B8C83DF91CF912D
:100540000895809100409091014001968093004071
:1005500090930140E2E0F0E42BEA30E02083318325
:1005600022E0228393838483BF018DE090E40E9484
:100570008C012FEF81EE94E0215080409040E1F714
:1005800000C00000E0E4F4E0878180648783089580
:100590000E946A020E94A102FDCFEE0FFF1F0024FD
:1005A000001C0BBE0790F691E02D0994F894FFCF44
:0205B000000148
:00000001FF
