S01F0000415652313238444134382D63616E6275732D77726974652E737265638F
S11300000C9474000C9493000C9493000C9493003F
S11300100C9493000C9493000C9493000C94930010
S11300200C9493000C9493000C9493000C94930000
S11300300C9493000C9493000C9493000C949300F0
S11300400C9493000C9493000C9493000C949300E0
S11300500C9493000C9493000C9493000C949300D0
S11300600C9493000C9493000C9493000C949300C0
S11300700C9493000C9493000C9493000C949300B0
S11300800C9493000C9493000C9493000C949300A0
S11300900C9493000C9493000C9493000C94930090
S11300A00C9493000C9493000C9493000C94930080
S11300B00C9493000C9493000C9493000C94930070
S11300C00C9493000C9493000C9493000C94930060
S11300D00C9493000C9493000C9493000C94930050
S11300E00C9493000C94930011241FBECFEFCDBF4A
S11300F0DFE7DEBF10E4A0E0B0E4E8E5F7E000E00D
S11301000BBF02C007900D92AE31B107D9F720E4BE
S1130110AEE1B0E401C01D92AA32B207E1F70E9439
S11301207D030C94AA030C940000CF93DF93CDB706
S1130130DEB72D97CDBFDEBFFA01808191819C018E
S11301403695279536952795369527952983829553
S1130150880F807E8A831B821C8282818F708D83AC
S113016083818E8384818F83858188878681898733
S113017087818A8780858B8781858C8782858D8717
S1130180809104048F7780930404623039F16130E4
S113019069F180E4809344098091430987FFFCCF8F
S11301A080914409FE0131969E01225F3F4F819167
S11301B0809344098091430987FFFCCF80914409CF
S11301C0E217F307A1F78091040480688093040484
S11301D02D96CDBFDEBFDF91CF91089584E4809347
S11301E044098091430987FFFCCFDACF82E48093EE
S11301F044098091430987FFFCCFD2CF80ED8093DF
S113020001048091040480688093040480E2809354
S1130210020480E3809340091092410980914009CF
S1130220816080934009809104048F778093040453
S1130230109244098091430987FFFCCF80914409BF
S113024080910404806880930404809104048F776F
S11302508093040480EC809344098091430987FFD0
S1130260FCCF809144098091040480688093040445
S1130270809104048F778093040482E0809344097E
S11302808091430987FFFCCF809144098FE08093DC
S113029044098091430987FFFCCF8091440988E891
S11302A0809344098091430987FFFCCF80914409DE
S11302B0809104048068809304041092440980911E
S11302C0430987FFFCCF80914409809104048F7710
S11302D08093040483E0809344098091430987FF59
S11302E0FCCF809144098EE08093440980914309B6
S11302F087FFFCCF809144091092440980914309FF
S113030087FFFCCF80914409809104048068809326
S11303100404693008F0F3C070E0FB01EC5EFF4BAD
S11303203081FB01E55FFF4B2081FB01EE5FFF4B5A
S11303309081809104048F778093040482E08093F9
S113034044098091430987FFFCCF809144098AE2E4
S1130350809344098091430987FFFCCF809144092D
S1130360309344098091430987FFFCCF809144096D
S113037080910404806880930404809104048F773E
S11303808093040482E0809344098091430987FFA9
S1130390FCCF8091440989E2809344098091430908
S11303A087FFFCCF8091440920934409809143093D
S11303B087FFFCCF80914409809104048068809376
S11303C00404809104048F778093040482E0809372
S11303D044098091430987FFFCCF8091440988E256
S11303E0809344098091430987FFFCCF809144099D
S11303F0909344098091430987FFFCCF809144097D
S113040080910404806880930404809104048F77AD
S11304108093040482E0809344098091430987FF18
S1130420FCCF809144098BE2809344098091430975
S113043087FFFCCF8091440983E080934409809135
S1130440430987FFFCCF80914409809104048068AC
S113045080930404809104048F778093040482E0E1
S1130460809344098091430987FFFCCF809144091C
S11304708FE0809344098091430987FFFCCF8091EA
S1130480440988E0809344098091430987FFFCCFA5
S1130490809144098091040480688093040410923C
S11304A044098091430987FFFCCF809144098091DE
S11304B004048F778093040483E08093440980913B
S11304C0430987FFFCCF809144098EE0809344095F
S11304D08091430987FFFCCF80914409109244091D
S11304E08091430987FFFCCF8091440990910404D3
S11304F0906890930404807E31F080E008959FEF2B
S11305002FEF3FEF16CF81E008959C01AB0190914E
S113051004049F779093040483E0809344099091AA
S1130520430997FFFCCF8091440980E380934409F9
S11305309091430997FFFCCF80914409109244099C
S11305409091430997FFFCCF809144099091040452
S113055090689093040483FF3FC0809104048F77D4
S11305608093040483E0809344099091430997FFA6
S1130570FCCF8091440980E480934409909143091D
S113058097FFFCCF8091440910924409909143094C
S113059097FFFCCF90914409809104048068809374
S11305A0040493FD32C061E0C9010E94950080916A
S11305B004048F778093040482E880934409809133
S11305C0430987FFFCCF8091440981E090910404A2
S11305D0906890930404089560E0C9010E94950016
S11305E0809104048F778093040481E88093440904
S11305F08091430987FFFCCF8091440980E090916A
S113060004049068909304040895809104048F77FF
S11306108093040483E0809344098091430987FF15
S1130620FCCF8091440980E580934409909143096B
S113063097FFFCCF8091440910924409909143099B
S113064097FFFCCF909144098091040480688093C3
S1130650040493FD19C062E0C9010E9495008091D1
S113066004048F778093040484E880934409809180
S1130670430987FFFCCF8091440982E090910404F0
S1130680906890930404089580E00895CF93DF93D5
S113069088ED84BFE0E6F0E0108284BF91819E7F04
S11306A0918384BF8CE18087C0E4D4E080E48983B3
S11306B08C8180648C8364E089E290E40E94FE0073
S11306C0EEE1F0E48AEA90E08083918388E082831B
S11306D091E0938392E0948393E0958394E09683EE
S11306E095E0978396E0908797E0918782878C8145
S11306F08F7B8C83DF91CF9108950E9446030BEA90
S113070010E0C2E0809100409091014001968093F6
S113071000409093014000931E4010931F40C093EB
S1130720204090932140809322406EE170E489E25E
S113073090E40E9485022FEF81EE94E021508040E6
S11307409040E1F700C000008091470480648093EA
S10B07504704D8CFF894FFCF51
S11307580001868586868586858280B4E2B4B4B134
S1110768B4B1908003470101010000000000BD
S9030000FC
