:100000000C9474000C9493000C9493000C94930043
:100010000C9493000C9493000C9493000C94930014
:100020000C9493000C9493000C9493000C94930004
:100030000C9493000C9493000C9493000C949300F4
:100040000C9493000C9493000C9493000C949300E4
:100050000C9493000C9493000C9493000C949300D4
:100060000C9493000C9493000C9493000C949300C4
:100070000C9493000C9493000C9493000C949300B4
:100080000C9493000C9493000C9493000C949300A4
:100090000C9493000C9493000C9493000C94930094
:1000A0000C9493000C9493000C9493000C94930084
:1000B0000C9493000C9493000C9493000C94930074
:1000C0000C9493000C9493000C9493000C94930064
:1000D0000C9493000C9493000C9493000C94930054
:1000E0000C9493000C94930011241FBECFEFCDBF4E
:1000F000DFE7DEBF10E4A0E0B0E4E4E3F6E000E018
:100100000BBF02C007900D92AC31B107D9F720E4C4
:10011000ACE1B0E401C01D92A533B207E1F70E9443
:10012000E4020C9418030C94000080ED8093010409
:100130008091040480688093040480E28093020428
:1001400080E38093400910924109809140098160C9
:1001500080934009809104048F7780930404109267
:1001600044098091430987FFFCCF80914409809125
:100170000404806880930404809104048F77809342
:10018000040480EC809344098091430987FFFCCFED
:1001900080914409809104048068809304048091D4
:1001A00004048F778093040482E080934409809153
:1001B000430987FFFCCF809144098FE08093440975
:1001C0008091430987FFFCCF8091440988E88093A0
:1001D00044098091430987FFFCCF809144098091B5
:1001E00004048068809304041092440980914309B8
:1001F00087FFFCCF80914409809104048F7780931E
:10020000040483E0809344098091430987FFFCCF75
:10021000809144098EE0809344098091430987FFCF
:10022000FCCF80914409109244098091430987FFD3
:10023000FCCF809144098091040480688093040479
:10024000693008F0F3C070E0FB01EE5EFF4B3081D7
:10025000FB01E75FFF4B2081FB01E050F04C9081F8
:10026000809104048F778093040482E08093440992
:100270008091430987FFFCCF809144098AE28093F3
:1002800044098091430987FFFCCF80914409309352
:1002900044098091430987FFFCCF809144098091F4
:1002A0000404806880930404809104048F77809311
:1002B000040482E0809344098091430987FFFCCFC6
:1002C0008091440989E2809344098091430987FF22
:1002D000FCCF80914409209344098091430987FF12
:1002E000FCCF8091440980910404806880930404C9
:1002F000809104048F778093040482E08093440902
:100300008091430987FFFCCF8091440988E2809364
:1003100044098091430987FFFCCF80914409909361
:1003200044098091430987FFFCCF80914409809163
:100330000404806880930404809104048F77809380
:10034000040482E0809344098091430987FFFCCF35
:10035000809144098BE2809344098091430987FF8F
:10036000FCCF8091440983E0809344098091430944
:1003700087FFFCCF809144098091040480688093BA
:100380000404809104048F778093040482E08093B6
:1003900044098091430987FFFCCF809144098FE095
:1003A000809344098091430987FFFCCF80914409E1
:1003B00088E0809344098091430987FFFCCF8091B6
:1003C00044098091040480688093040410924409D5
:1003D0008091430987FFFCCF8091440980910404F8
:1003E0008F778093040483E08093440980914309CC
:1003F00087FFFCCF809144098EE08093440980916F
:10040000430987FFFCCF80914409109244098091F1
:10041000430987FFFCCF80914409909104049068C0
:1004200090930404807E31F080E008959FEF2FEFD9
:100430003FEF16CF81E00895809104048F77809379
:10044000040480EB809344098091430987FFFCCF2B
:1004500080914409109244098091430987FFFCCFA1
:1004600080914409909104049068909304048295CB
:100470008695869583700895CF93DF93EC018091E4
:1004800004048F778093040480EB80934409809167
:10049000430987FFFCCF8091440910924409809161
:1004A000430987FFFCCF9091440980910404806840
:1004B0008093040496FF40C0809104048F7780935A
:1004C000040480E9809344098091430987FFFCCFAD
:1004D00080914409ECE1F0E429E230E4109244090F
:1004E0008091430987FFFCCF8091440981932E17A7
:1004F0003F07A1F780911C4090E0880F991F880F5B
:10050000991F880F991F20911D40229526952770CD
:10051000822B88839983409120404F704A834423E3
:1005200039F050E061E270E4CE0103960E940F03BF
:10053000CE01DF91CF91089597FD08C018821982EE
:100540001A821B82CE01DF91CF910895809104041D
:100550008F778093040484E9809344098091430950
:1005600087FFFCCF80914409ECE1F0E4109244094C
:100570008091430987FFFCCF80914409819380E4F7
:10058000E932F80799F7B6CFCF93DF9388ED84BFB0
:10059000E0E6F0E0108284BF91819E7F918384BF6A
:1005A0008CE18087C0E4D4E080E489838C8180641E
:1005B0008C8364E084E390E40E9495008C818F7BBF
:1005C0008C83DF91CF910895CF93DF93CDB7DEB7C2
:1005D0002B97CDBFDEBF0E94C40284E390E40E944B
:1005E0001C028823D1F364E370E4CE0101960E94DB
:1005F0003C028BE0FE013196A9E2B0E401900D923D
:100600008A95E1F78091294090912A408B3A910593
:1006100021F780914704806480934704DECFFB017B
:10062000DC0102C001900D9241505040D8F708956E
:04063000F894FFCF6C
:10063400868586868586858280B4E2B4B4B1B4B1F9
:0C0644009080034701010100000000004D
:00000001FF
