S01E0000415652313238444134382D63616E6275732D726561642E737265631F
S11300000C947D000C948F000C948F000C948F0042
S11300100C948F000C948F000C948F000C948F0020
S11300200C948F000C948F000C948F000C948F0010
S11300300C948F000C948F000C948F000C948F0000
S11300400C948F000C948F000C948F000C948F00F0
S11300500C948F000C948F000C948F000C948F00E0
S11300600C948F000C948F000C948F000C948F00D0
S11300700C948F000C948F000C948F000C948F00C0
S11300800C948F000C948F000C948F000C948F00B0
S11300900C948F000C948F000C948F000C948F00A0
S11300A00C948F000C948F000C948F000C948F0090
S11300B00C948F000C948F000C948F000C948F0080
S11300C00C948F000C948F000C948F000C948F0070
S11300D00C948F000C948F000C948F000C948F0060
S11300E00C948F000C948F00F4011802F801FC01A9
S11300F00002040208020C02100211241FBECFEFFA
S1130100CDBFDFE7DEBF20E4A0E0B0E401C01D9274
S1130110A931B207E1F70E94C1020C94CF020C94FA
S11301200000FB0180ED818384818068848380E208
S11301308283E0E4F9E080E380831182808181603E
S113014080830895E0E0F4E084818F7784830895C8
S1130150E0E0F4E084818068848308956093440936
S1130160809143098823E4F7809144090895CF934B
S1130170DF93EC010E94A20060ECCE010E94AE006D
S1130180CE010E94A800DF91CF9108951F93CF93D1
S1130190DF93EC010E94A20060EACE010E94AE004F
S11301A060E0CE010E94AE00182FCE010E94A8008C
S11301B0812FDF91CF911F9108950F931F93CF93B8
S11301C0DF93EC01062F142F0E94A20062E0CE01FF
S11301D00E94AE00602FCE010E94AE00612FCE01BE
S11301E00E94AE00CE010E94A800DF91CF911F9122
S11301F00F9108951F93CF93DF93EC01162F0E9464
S1130200A20063E0CE010E94AE00612FCE010E94E5
S1130210AE0060E0CE010E94AE00182FCE010E9415
S1130220A800812FDF91CF911F9108951F93CF9341
S1130230DF93EC010E94A20060EBCE010E94AE00AD
S113024060E0CE010E94AE00182FCE010E94A800EB
S1130250812FDF91CF911F9108950F931F93CF9317
S1130260DF938C01C62F0E94A200C13039F464E9E7
S1130270C8010E94AE00C0E0D0E005C060E9C8013A
S11302800E94AE00F8CFCD30D10554F460E0C8012F
S11302900E94AE00FE01E050F04C80832196F3CF23
S11302A080E090E4DF91CF911F910F9108950E9417
S11302B01601829586958695837008950F931F93F2
S11302C0CF93DF93EC018B01CB010E94C60083FF27
S11302D006C060E0C8010E942D01DC0107C085FF53
S11302E02DC061E0C8010E942D01DC018C9190E0D9
S11302F0880F991F880F991F880F991F11962C91A9
S11303001197229526952770822B888399831496BA
S11303106C9114976F706A8320E030E0462F50E0B0
S1130320241735075CF4FD01E20FF31F9581FE01EC
S1130330E20FF31F93832F5F3F4FF0CFCE01DF9186
S1130340CF911F910F910895CF93DF93EC01623009
S113035069F028F4662381F0613031F00EC0633017
S113036039F0643039F009C048E007C048E205C0FC
S113037048E603C048E401C048E86FE0CE010E94AB
S1130380DD0060E0CE010E94AE006EE0CE010E946E
S1130390FA00807E803469F028F4882341F08032AA
S11303A081F00DC0803639F0803839F008C081E022
S11303B009C084E007C083E005C080E003C08FEF7C
S11303C001C082E0DF91CF9108950F931F93CF93E3
S11303D0DF93EC01862F90E08930910528F5FC012C
S11303E0EC58FF4F0C94C60216E804EB43E023C01C
S11303F016E804EB41E01FC016E804EB41E01BC023
S113040015E801EB41E017C016E804EB40E013C027
S113041015E801EB40E00FC012E800E940E00BC032
S113042010E800E840E007C01FEF0FEF4FEF03C0F4
S113043015E802EE47E46AE2CE010E94DD00402F97
S113044069E2CE010E94DD00412F68E2CE010E94E4
S1130450DD00DF91CF911F910F9108951F93CF93EA
S1130460DF93EC01162F60E074E00E949100CE014E
S11304700E94A20060E0CE010E94AE00CE010E9464
S1130480A800CE010E94B700612FCE010E94E501B1
S113049061E0CE010E94A401813009F080E0DF9187
S11304A0CF911F910895CF93DF9388ED84BFE0E649
S11304B0F0E0108284BF91819E7F918384BF8CE1A0
S11304C08087C0E4D4E080E489838C8180648C8359
S11304D064E088E190E40E942E02EDE0F0E48EEB0B
S11304E090E08083918388E0828391E0938392E01B
S11304F0948393E0958394E0968395E0978396E0C4
S1130500908797E0918782878C818F7B8C83DF91A2
S1130510CF910895CF93DF93CDB7DEB72B97CDBF9F
S1130520DEBF88E190E40E9457018823D9F068E196
S113053070E4CE0101960E945E018BE0FE013196CB
S1130540ADE0B0E401900D928A95E1F780910D4001
S113055090910E408B3A910529F4E0E4F4E0878110
S1130560806487832FEF81EE94E021508040904097
S1130570E1F700C000002B96CDBFDEBFDF91CF9125
S113058008950E9453020E948A02FDCFEE0FFF1FBE
S11305900024001C0BBE0790F691E02D0994F894FA
S10505A0FFCF87
S9030000FC
